{
  "contractName": "EventTickets",
  "abi": [
    {
      "constant": true,
      "inputs": [],
      "name": "owner",
      "outputs": [
        {
          "name": "",
          "type": "address"
        }
      ],
      "payable": false,
      "stateMutability": "view",
      "type": "function",
      "signature": "0x8da5cb5b"
    },
    {
      "inputs": [
        {
          "name": "description",
          "type": "string"
        },
        {
          "name": "website",
          "type": "string"
        },
        {
          "name": "totalTickets",
          "type": "uint256"
        }
      ],
      "payable": false,
      "stateMutability": "nonpayable",
      "type": "constructor",
      "signature": "constructor"
    },
    {
      "anonymous": false,
      "inputs": [
        {
          "indexed": false,
          "name": "purchaser",
          "type": "address"
        },
        {
          "indexed": false,
          "name": "noOfTickets",
          "type": "uint256"
        }
      ],
      "name": "LogBuyTickets",
      "type": "event",
      "signature": "0x72240c1be87ee789414e12fc30844d39a55d1eaf3b8741489fe381ad2b6cdd47"
    },
    {
      "anonymous": false,
      "inputs": [
        {
          "indexed": false,
          "name": "refundRequester",
          "type": "address"
        },
        {
          "indexed": false,
          "name": "noOfTickets",
          "type": "uint256"
        }
      ],
      "name": "LogGetRefund",
      "type": "event",
      "signature": "0x492e1d962a477f77890c7cfdb563d7ddc58fee6505741794fa5700ada3c16041"
    },
    {
      "anonymous": false,
      "inputs": [
        {
          "indexed": false,
          "name": "owner",
          "type": "address"
        },
        {
          "indexed": false,
          "name": "balance",
          "type": "uint256"
        }
      ],
      "name": "LogEndSale",
      "type": "event",
      "signature": "0x21e7b2f8578199ba3904a63b7cd799784c8cadde57dde563a7de95ef792e256c"
    },
    {
      "constant": true,
      "inputs": [],
      "name": "readEvent",
      "outputs": [
        {
          "name": "description",
          "type": "string"
        },
        {
          "name": "website",
          "type": "string"
        },
        {
          "name": "totalTickets",
          "type": "uint256"
        },
        {
          "name": "sales",
          "type": "uint256"
        },
        {
          "name": "isOpen",
          "type": "bool"
        }
      ],
      "payable": false,
      "stateMutability": "view",
      "type": "function",
      "signature": "0x05aea97c"
    },
    {
      "constant": true,
      "inputs": [
        {
          "name": "purchaser",
          "type": "address"
        }
      ],
      "name": "getBuyerTicketCount",
      "outputs": [
        {
          "name": "",
          "type": "uint256"
        }
      ],
      "payable": false,
      "stateMutability": "view",
      "type": "function",
      "signature": "0xedfb9167"
    },
    {
      "constant": false,
      "inputs": [
        {
          "name": "noOfTickets",
          "type": "uint256"
        }
      ],
      "name": "buyTickets",
      "outputs": [],
      "payable": true,
      "stateMutability": "payable",
      "type": "function",
      "signature": "0x2f366637"
    },
    {
      "constant": false,
      "inputs": [],
      "name": "getRefund",
      "outputs": [],
      "payable": false,
      "stateMutability": "nonpayable",
      "type": "function",
      "signature": "0xb2d5ae44"
    },
    {
      "constant": false,
      "inputs": [],
      "name": "endSale",
      "outputs": [],
      "payable": false,
      "stateMutability": "nonpayable",
      "type": "function",
      "signature": "0x380d831b"
    }
  ],
  "bytecode": "0x608060405260646001553480156200001657600080fd5b5060405162000ec738038062000ec7833981018060405260608110156200003c57600080fd5b8101908080516401000000008111156200005557600080fd5b828101905060208101848111156200006c57600080fd5b81518560018202830111640100000000821117156200008a57600080fd5b50509291906020018051640100000000811115620000a757600080fd5b82810190506020810184811115620000be57600080fd5b8151856001820283011164010000000082111715620000dc57600080fd5b505092919060200180519060200190929190505050336000806101000a81548173ffffffffffffffffffffffffffffffffffffffff021916908373ffffffffffffffffffffffffffffffffffffffff16021790555082600260000190805190602001906200014c92919062000199565b5081600260010190805190602001906200016892919062000199565b508060028001819055506001600260050160006101000a81548160ff02191690831515021790555050505062000248565b828054600181600116156101000203166002900490600052602060002090601f016020900481019282601f10620001dc57805160ff19168380011785556200020d565b828001600101855582156200020d579182015b828111156200020c578251825591602001919060010190620001ef565b5b5090506200021c919062000220565b5090565b6200024591905b808211156200024157600081600090555060010162000227565b5090565b90565b610c6f80620002586000396000f3fe608060405260043610610078576000357c0100000000000000000000000000000000000000000000000000000000900463ffffffff16806305aea97c1461007d5780632f36663714610192578063380d831b146101c05780638da5cb5b146101d7578063b2d5ae441461022e578063edfb916714610245575b600080fd5b34801561008957600080fd5b506100926102aa565b60405180806020018060200186815260200185815260200184151515158152602001838103835288818151815260200191508051906020019080838360005b838110156100ec5780820151818401526020810190506100d1565b50505050905090810190601f1680156101195780820380516001836020036101000a031916815260200191505b50838103825287818151815260200191508051906020019080838360005b83811015610152578082015181840152602081019050610137565b50505050905090810190601f16801561017f5780820380516001836020036101000a031916815260200191505b5097505050505050505060405180910390f35b6101be600480360360208110156101a857600080fd5b8101908080359060200190929190505050610423565b005b3480156101cc57600080fd5b506101d56106f8565b005b3480156101e357600080fd5b506101ec610985565b604051808273ffffffffffffffffffffffffffffffffffffffff1673ffffffffffffffffffffffffffffffffffffffff16815260200191505060405180910390f35b34801561023a57600080fd5b506102436109aa565b005b34801561025157600080fd5b506102946004803603602081101561026857600080fd5b81019080803573ffffffffffffffffffffffffffffffffffffffff169060200190929190505050610bf7565b6040518082815260200191505060405180910390f35b6060806000806000600260000160026001016002800154600260030154600260050160009054906101000a900460ff16848054600181600116156101000203166002900480601f01602080910402602001604051908101604052809291908181526020018280546001816001161561010002031660029004801561036f5780601f106103445761010080835404028352916020019161036f565b820191906000526020600020905b81548152906001019060200180831161035257829003601f168201915b50505050509450838054600181600116156101000203166002900480601f01602080910402602001604051908101604052809291908181526020018280546001816001161561010002031660029004801561040b5780601f106103e05761010080835404028352916020019161040b565b820191906000526020600020905b8154815290600101906020018083116103ee57829003601f168201915b50505050509350945094509450945094509091929394565b600260050160009054906101000a900460ff1615156104aa576040517f08c379a00000000000000000000000000000000000000000000000000000000081526004018080602001828103825260118152602001807f4576656e74206973206e6f74206f70656e00000000000000000000000000000081525060200191505060405180910390fd5b60015481023410151515610526576040517f08c379a000000000000000000000000000000000000000000000000000000000815260040180806020018281038252601e8152602001807f5472616e73616374696f6e2076616c756520696e73756666696369656e74000081525060200191505060405180910390fd5b806002800154101515156105c8576040517f08c379a00000000000000000000000000000000000000000000000000000000081526004018080602001828103825260228152602001807f496e73756666696369656e742073746f636b206f66207469636b657473206c6581526020017f667400000000000000000000000000000000000000000000000000000000000081525060400191505060405180910390fd5b80600260040160003373ffffffffffffffffffffffffffffffffffffffff1673ffffffffffffffffffffffffffffffffffffffff16815260200190815260200160002060008282540192505081905550806002800160008282540392505081905550806002600301600082825401925050819055503373ffffffffffffffffffffffffffffffffffffffff166108fc600154830234039081150290604051600060405180830381858888f19350505050158015610689573d6000803e3d6000fd5b507f72240c1be87ee789414e12fc30844d39a55d1eaf3b8741489fe381ad2b6cdd473382604051808373ffffffffffffffffffffffffffffffffffffffff1673ffffffffffffffffffffffffffffffffffffffff1681526020018281526020019250505060405180910390a150565b6000809054906101000a900473ffffffffffffffffffffffffffffffffffffffff1673ffffffffffffffffffffffffffffffffffffffff163373ffffffffffffffffffffffffffffffffffffffff161415156107bc576040517f08c379a00000000000000000000000000000000000000000000000000000000081526004018080602001828103825260148152602001807f43616c6c6572206e6f7420746865206f776e657200000000000000000000000081525060200191505060405180910390fd5b600260050160009054906101000a900460ff161515610843576040517f08c379a00000000000000000000000000000000000000000000000000000000081526004018080602001828103825260148152602001807f4576656e7420616c726561647920636c6f73656400000000000000000000000081525060200191505060405180910390fd5b6000600260050160006101000a81548160ff0219169083151502179055506000809054906101000a900473ffffffffffffffffffffffffffffffffffffffff1673ffffffffffffffffffffffffffffffffffffffff166108fc3073ffffffffffffffffffffffffffffffffffffffff16319081150290604051600060405180830381858888f193505050501580156108df573d6000803e3d6000fd5b507f21e7b2f8578199ba3904a63b7cd799784c8cadde57dde563a7de95ef792e256c6000809054906101000a900473ffffffffffffffffffffffffffffffffffffffff163073ffffffffffffffffffffffffffffffffffffffff1631604051808373ffffffffffffffffffffffffffffffffffffffff1673ffffffffffffffffffffffffffffffffffffffff1681526020018281526020019250505060405180910390a1565b6000809054906101000a900473ffffffffffffffffffffffffffffffffffffffff1681565b6000600260040160003373ffffffffffffffffffffffffffffffffffffffff1673ffffffffffffffffffffffffffffffffffffffff16815260200190815260200160002054111515610a8a576040517f08c379a00000000000000000000000000000000000000000000000000000000081526004018080602001828103825260228152602001807f526571756573746572206e6f742070757263686173656420616e79207469636b81526020017f657400000000000000000000000000000000000000000000000000000000000081525060400191505060405180910390fd5b6000600260040160003373ffffffffffffffffffffffffffffffffffffffff1673ffffffffffffffffffffffffffffffffffffffff168152602001908152602001600020549050806002800160008282540192505081905550806002600301600082825403925050819055506000600260040160003373ffffffffffffffffffffffffffffffffffffffff1673ffffffffffffffffffffffffffffffffffffffff168152602001908152602001600020819055503373ffffffffffffffffffffffffffffffffffffffff166108fc60015483029081150290604051600060405180830381858888f19350505050158015610b88573d6000803e3d6000fd5b507f492e1d962a477f77890c7cfdb563d7ddc58fee6505741794fa5700ada3c160413382604051808373ffffffffffffffffffffffffffffffffffffffff1673ffffffffffffffffffffffffffffffffffffffff1681526020018281526020019250505060405180910390a150565b6000600260040160008373ffffffffffffffffffffffffffffffffffffffff1673ffffffffffffffffffffffffffffffffffffffff16815260200190815260200160002054905091905056fea165627a7a72305820641bdd0256e67f2e9ba034ace86be8ae764f5761e892ab4a1f00c1c5f3ae06210029",
  "source": "pragma solidity ^0.5.0;\n\n    /*\n        The EventTickets contract keeps track of the details and ticket sales of one event.\n     */\n\ncontract EventTickets {\n\n    /*\n        Create a public state variable called owner.\n        Use the appropriate keyword to create an associated getter function.\n        Use the appropriate keyword to allow ether transfers.\n     */\n    address payable public owner;\n    uint TICKET_PRICE = 100 wei;\n\n    /*\n        Create a struct called \"Event\".\n        The struct has 6 fields: description, website (URL), totalTickets, sales, buyers, and isOpen.\n        Choose the appropriate variable type for each field.\n        The \"buyers\" field should keep track of addresses and how many tickets each buyer purchases.\n    */\n    struct Event {\n        string description;\n        string website;\n        uint totalTickets;\n        uint sales;\n        mapping(address => uint) buyers;\n        bool isOpen;\n    }\n    Event myEvent;\n\n    /*\n        Define 3 logging events.\n        LogBuyTickets should provide information about the purchaser and the number of tickets purchased.\n        LogGetRefund should provide information about the refund requester and the number of tickets refunded.\n        LogEndSale should provide infromation about the contract owner and the balance transferred to them.\n    */\n    event LogBuyTickets(address purchaser, uint noOfTickets);\n    event LogGetRefund(address refundRequester, uint noOfTickets);\n    event LogEndSale(address owner, uint balance);\n    /*\n        Create a modifier that throws an error if the msg.sender is not the owner.\n    */\n    modifier isOwner() {\n        require(msg.sender == owner, \"Caller not the owner\");\n        _;\n    }\n\n    /*\n        Define a constructor.\n        The constructor takes 3 arguments, the description, the URL and the number of tickets for sale.\n        Set the owner to the creator of the contract.\n        Set the appropriate myEvent details.\n    */\n    constructor(string memory description, string memory website, uint totalTickets) public {\n        owner = msg.sender;\n        myEvent.description = description;\n        myEvent.website = website;\n        myEvent.totalTickets = totalTickets;\n        myEvent.isOpen = true;\n    }\n    /*\n        Define a funciton called readEvent() that returns the event details.\n        This function does not modify state, add the appropriate keyword.\n        The returned details should be called description, website, uint totalTickets, uint sales, bool isOpen in that order.\n    */\n    function readEvent() public view returns(string memory description, string memory website, uint totalTickets, uint sales, bool isOpen) {\n        return (myEvent.description, myEvent.website, myEvent.totalTickets, myEvent.sales, myEvent.isOpen);\n    }\n\n    /*\n        Define a function called getBuyerTicketCount().\n        This function takes 1 argument, an address and\n        returns the number of tickets that address has purchased.\n    */\n     function getBuyerTicketCount(address purchaser) public view returns (uint) {\n         return myEvent.buyers[purchaser];\n     }\n    /*\n        Define a function called buyTickets().\n        This function allows someone to purchase tickets for the event.\n        This function takes one argument, the number of tickets to be purchased.\n        This function can accept Ether.\n        Be sure to check:\n            - That the event isOpen\n            - That the transaction value is sufficient for the number of tickets purchased\n            - That there are enough tickets in stock\n        Then:\n            - add the appropriate number of tickets to the purchasers count\n            - account for the purchase in the remaining number of available tickets\n            - refund any surplus value sent with the transaction\n            - emit the appropriate event\n    */\n    function buyTickets(uint noOfTickets) public payable {\n        require(myEvent.isOpen, \"Event is not open\");\n        require(msg.value >= noOfTickets * TICKET_PRICE, \"Transaction value insufficient\");\n        require(myEvent.totalTickets >= noOfTickets, \"Insufficient stock of tickets left\");\n        myEvent.buyers[msg.sender] += noOfTickets;\n        myEvent.totalTickets -= noOfTickets;\n        myEvent.sales += noOfTickets;\n        msg.sender.transfer(msg.value - noOfTickets * TICKET_PRICE);\n        emit LogBuyTickets(msg.sender, noOfTickets);\n    }\n    /*\n        Define a function called getRefund().\n        This function allows someone to get a refund for tickets for the account they purchased from.\n        TODO:\n            - Check that the requester has purchased tickets.\n            - Make sure the refunded tickets go back into the pool of avialable tickets.\n            - Transfer the appropriate amount to the refund requester.\n            - Emit the appropriate event.\n    */\n    function getRefund() public {\n        require(myEvent.buyers[msg.sender] > 0, \"Requester not purchased any ticket\");\n        uint noOfTickets = myEvent.buyers[msg.sender];\n        myEvent.totalTickets += noOfTickets;\n        myEvent.sales -= noOfTickets;\n        myEvent.buyers[msg.sender] = 0;\n        msg.sender.transfer(noOfTickets * TICKET_PRICE);\n        emit LogGetRefund(msg.sender, noOfTickets);\n    }\n    /*\n        Define a function called endSale().\n        This function will close the ticket sales.\n        This function can only be called by the contract owner.\n        TODO:\n            - close the event\n            - transfer the contract balance to the owner\n            - emit the appropriate event\n    */\n    function endSale() isOwner public {\n        require(myEvent.isOpen, \"Event already closed\");\n        myEvent.isOpen = false;\n        owner.transfer(address(this).balance);\n        emit LogEndSale(owner, address(this).balance);\n    }\n}",
  "sourcePath": "/Users/luisvidela/Development/consensysBootcamp/event-tickets-exercise-luisvid/contracts/EventTickets.sol",
  "compiler": {
    "name": "solc",
    "version": "0.5.0+commit.1d4f565a.Emscripten.clang"
  },
  "schemaVersion": "3.0.6",
  "updatedAt": "2019-07-29T03:48:03.139Z",
  "devdoc": {
    "methods": {}
  },
  "userdoc": {
    "methods": {}
  }
}